{
  "contractName": "FlashLoan",
  "abi": [
    {
      "inputs": [
        {
          "internalType": "contract ILendingPoolAddressesProvider",
          "name": "_lendingProvider",
          "type": "address"
        }
      ],
      "stateMutability": "nonpayable",
      "type": "constructor"
    },
    {
      "inputs": [],
      "name": "ADDRESSES_PROVIDER",
      "outputs": [
        {
          "internalType": "contract ILendingPoolAddressesProvider",
          "name": "",
          "type": "address"
        }
      ],
      "stateMutability": "view",
      "type": "function"
    },
    {
      "inputs": [],
      "name": "LENDING_POOL",
      "outputs": [
        {
          "internalType": "contract ILendingPool",
          "name": "",
          "type": "address"
        }
      ],
      "stateMutability": "view",
      "type": "function"
    },
    {
      "inputs": [
        {
          "internalType": "address",
          "name": "_asset",
          "type": "address"
        }
      ],
      "name": "flashLoan",
      "outputs": [],
      "stateMutability": "nonpayable",
      "type": "function"
    },
    {
      "inputs": [
        {
          "internalType": "address[]",
          "name": "_assets",
          "type": "address[]"
        },
        {
          "internalType": "uint256[]",
          "name": "_amounts",
          "type": "uint256[]"
        }
      ],
      "name": "flashLoan",
      "outputs": [],
      "stateMutability": "nonpayable",
      "type": "function"
    },
    {
      "inputs": [
        {
          "internalType": "address[]",
          "name": "_assets",
          "type": "address[]"
        },
        {
          "internalType": "uint256[]",
          "name": "_amounts",
          "type": "uint256[]"
        },
        {
          "internalType": "uint256[]",
          "name": "_premiums",
          "type": "uint256[]"
        },
        {
          "internalType": "address",
          "name": "_initiator",
          "type": "address"
        },
        {
          "internalType": "bytes",
          "name": "_params",
          "type": "bytes"
        }
      ],
      "name": "executeOperation",
      "outputs": [
        {
          "internalType": "bool",
          "name": "",
          "type": "bool"
        }
      ],
      "stateMutability": "nonpayable",
      "type": "function"
    }
  ],
  "bytecode": "0x60c060405234801561001057600080fd5b50604051610bb4380380610bb48339818101604052602081101561003357600080fd5b8101908080519060200190929190505050808073ffffffffffffffffffffffffffffffffffffffff1660808173ffffffffffffffffffffffffffffffffffffffff1660601b815250508073ffffffffffffffffffffffffffffffffffffffff16630261bf8b6040518163ffffffff1660e01b815260040160206040518083038186803b1580156100c257600080fd5b505afa1580156100d6573d6000803e3d6000fd5b505050506040513d60208110156100ec57600080fd5b810190808051906020019092919050505073ffffffffffffffffffffffffffffffffffffffff1660a08173ffffffffffffffffffffffffffffffffffffffff1660601b81525050505060805160601c60a05160601c610a4c610168600039806105d152806106a252806107745250806104045250610a4c6000f3fe608060405234801561001057600080fd5b50600436106100575760003560e01c80630542975c1461005c578063231d39b914610090578063920f5c84146100d4578063b4dcfc7714610282578063db5dce16146102b6575b600080fd5b610064610402565b604051808273ffffffffffffffffffffffffffffffffffffffff16815260200191505060405180910390f35b6100d2600480360360208110156100a657600080fd5b81019080803573ffffffffffffffffffffffffffffffffffffffff169060200190929190505050610426565b005b61026a600480360360a08110156100ea57600080fd5b810190808035906020019064010000000081111561010757600080fd5b82018360208201111561011957600080fd5b8035906020019184602083028401116401000000008311171561013b57600080fd5b90919293919293908035906020019064010000000081111561015c57600080fd5b82018360208201111561016e57600080fd5b8035906020019184602083028401116401000000008311171561019057600080fd5b9091929391929390803590602001906401000000008111156101b157600080fd5b8201836020820111156101c357600080fd5b803590602001918460208302840111640100000000831117156101e557600080fd5b9091929391929390803573ffffffffffffffffffffffffffffffffffffffff1690602001909291908035906020019064010000000081111561022657600080fd5b82018360208201111561023857600080fd5b8035906020019184600183028401116401000000008311171561025a57600080fd5b909192939192939050505061053d565b60405180821515815260200191505060405180910390f35b61028a6106a0565b604051808273ffffffffffffffffffffffffffffffffffffffff16815260200191505060405180910390f35b610400600480360360408110156102cc57600080fd5b81019080803590602001906401000000008111156102e957600080fd5b8201836020820111156102fb57600080fd5b8035906020019184602083028401116401000000008311171561031d57600080fd5b919080806020026020016040519081016040528093929190818152602001838360200280828437600081840152601f19601f8201169050808301925050505050505091929192908035906020019064010000000081111561037d57600080fd5b82018360208201111561038f57600080fd5b803590602001918460208302840111640100000000831117156103b157600080fd5b919080806020026020016040519081016040528093929190818152602001838360200280828437600081840152601f19601f8201169050808301925050505050505091929192905050506106c4565b005b7f000000000000000000000000000000000000000000000000000000000000000081565b6000670de0b6b3a764000090506060600167ffffffffffffffff8111801561044d57600080fd5b5060405190808252806020026020018201604052801561047c5781602001602082028036833780820191505090505b509050828160018151811061048d57fe5b602002602001019073ffffffffffffffffffffffffffffffffffffffff16908173ffffffffffffffffffffffffffffffffffffffff16815250506060600167ffffffffffffffff811180156104e157600080fd5b506040519080825280602002602001820160405280156105105781602001602082028036833780820191505090505b509050828160018151811061052157fe5b60200260200101818152505061053782826106d2565b50505050565b600080600090505b8a8a905081101561068e57600061058988888481811061056157fe5b905060200201358b8b8581811061057457fe5b9050602002013561098e90919063ffffffff16565b90508b8b8381811061059757fe5b9050602002013573ffffffffffffffffffffffffffffffffffffffff1673ffffffffffffffffffffffffffffffffffffffff1663095ea7b37f0000000000000000000000000000000000000000000000000000000000000000836040518363ffffffff1660e01b8152600401808373ffffffffffffffffffffffffffffffffffffffff16815260200182815260200192505050602060405180830381600087803b15801561064457600080fd5b505af1158015610658573d6000803e3d6000fd5b505050506040513d602081101561066e57600080fd5b810190808051906020019092919050505050508080600101915050610545565b50600190509998505050505050505050565b7f000000000000000000000000000000000000000000000000000000000000000081565b6106ce82826106d2565b5050565b60003090506000309050606060405180602001604052806000815250905060006060865167ffffffffffffffff8111801561070c57600080fd5b5060405190808252806020026020018201604052801561073b5781602001602082028036833780820191505090505b50905060005b875181101561077157600082828151811061075857fe5b6020026020010181815250508080600101915050610741565b507f000000000000000000000000000000000000000000000000000000000000000073ffffffffffffffffffffffffffffffffffffffff1663ab9c4b5d868989858989896040518863ffffffff1660e01b8152600401808873ffffffffffffffffffffffffffffffffffffffff1681526020018060200180602001806020018773ffffffffffffffffffffffffffffffffffffffff168152602001806020018661ffff16815260200185810385528b818151815260200191508051906020019060200280838360005b8381101561085557808201518184015260208101905061083a565b5050505090500185810384528a818151815260200191508051906020019060200280838360005b8381101561089757808201518184015260208101905061087c565b50505050905001858103835289818151815260200191508051906020019060200280838360005b838110156108d95780820151818401526020810190506108be565b50505050905001858103825287818151815260200191508051906020019080838360005b838110156109185780820151818401526020810190506108fd565b50505050905090810190601f1680156109455780820380516001836020036101000a031916815260200191505b509b505050505050505050505050600060405180830381600087803b15801561096d57600080fd5b505af1158015610981573d6000803e3d6000fd5b5050505050505050505050565b600080828401905083811015610a0c576040517f08c379a000000000000000000000000000000000000000000000000000000000815260040180806020018281038252601b8152602001807f536166654d6174683a206164646974696f6e206f766572666c6f77000000000081525060200191505060405180910390fd5b809150509291505056fea2646970667358221220f1aa6257ad84d9c5b6ed917fbbe9d3b3923b65f233a749cd6434d8237f8c665f64736f6c634300060c0033",
  "immutableReferences": {
    "247": [
      {
        "length": 32,
        "start": 1028
      }
    ],
    "250": [
      {
        "length": 32,
        "start": 1489
      },
      {
        "length": 32,
        "start": 1698
      },
      {
        "length": 32,
        "start": 1908
      }
    ]
  },
  "source": "pragma solidity >=0.5.0 <0.9.0;\n\nimport {FlashLoanReceiverBase} from \"./FlashLoanReceiverBase.sol\";\nimport {SafeMath} from \"@openzeppelin/contracts/math/SafeMath.sol\";\nimport {IERC20} from '@openzeppelin/contracts/token/ERC20/IERC20.sol';\nimport {ILendingPoolAddressesProvider} from './interfaces/ILendingPoolAddressesProvider.sol';\n\n\ncontract FlashLoan is FlashLoanReceiverBase{\n    using SafeMath for uint256;\n\n    constructor(ILendingPoolAddressesProvider _lendingProvider) FlashLoanReceiverBase(_lendingProvider) public {}\n\n    function _flashLoan(\n        address[] memory _assets,\n        uint256[] memory _amounts\n    ) internal {\n        address recieverAddress = address(this);\n        address onBehalfOf = address(this);\n        bytes memory params = \"\";\n        uint16 referralCode = 0;\n\n        uint256[] memory modes = new uint256[](_assets.length);\n\n        for (uint i = 0 ; i < _assets.length; i++) {\n            modes[i] = 0;\n        }\n\n        LENDING_POOL.flashLoan(\n            recieverAddress,\n            _assets, \n            _amounts, \n            modes, \n            onBehalfOf, \n            params, \n            referralCode\n        );\n    }\n\n\n    // flash loan for multiple assets\n    function flashLoan(address[] memory _assets,uint256[] memory _amounts) public {\n        _flashLoan(_assets, _amounts);\n    }\n\n    function flashLoan(address _asset) public {\n        // bytes memory data = \"\";\n        uint amount = 1 ether;\n        \n        address[] memory assets = new address[](1);\n        assets[1] = _asset;\n\n        uint256[] memory amounts = new uint256[](1);\n        amounts[1] = amount;\n\n        _flashLoan(assets, amounts);\n    }\n\n    function executeOperation(\n        address[] calldata _assets,\n        uint256[] calldata _amounts, \n        uint256[] calldata _premiums, \n        address _initiator, \n        bytes calldata _params\n    ) external override returns(bool)\n    {\n        \n\n        for (uint i = 0 ; i < _assets.length; i++) {\n            uint256 amountOwing = _amounts[i].add(_premiums[i]);\n            IERC20(_assets[i]).approve(address(LENDING_POOL), amountOwing);\n        } \n\n        return true;\n    }\n}",
  "sourcePath": "/home/alihamrani/Codes/github/alidevjimmy/flashloan-test/contracts/FlashLoan.sol",
  "compiler": {
    "name": "solc",
    "version": "0.6.12+commit.27d51765.Emscripten.clang"
  },
  "schemaVersion": "3.3.3",
  "updatedAt": "2021-02-16T08:28:49.464Z",
  "devdoc": {
    "kind": "dev",
    "methods": {},
    "version": 1
  },
  "userdoc": {
    "kind": "user",
    "methods": {},
    "version": 1
  }
}